:100000000C9461000C947E000C947E000C947E0095
:100010000C947E000C947E000C947E000C947E0068
:100020000C947E000C947E000C947E000C947E0058
:100030000C947E000C947E000C947E000C947E0048
:100040000C9400020C947E000C947E000C947E00B4
:100050000C947E000C947E000C947E000C947E0028
:100060000C947E000C947E0000000000230026000B
:10007000290000000000240027002A0000000000E2
:10008000250028002B0004040404040404040202D4
:100090000202020203030303030301020408102007
:1000A0004080010204081020010204081020000012
:1000B0000008000201000003040700000000000027
:1000C000000011241FBECFEFD8E0DEBFCDBF11E08E
:1000D000A0E0B1E0E6E5F6E002C005900D92A230A6
:1000E000B107D9F721E0A2E0B1E001C01D92AB3029
:1000F000B207E1F70E944A020C9429030C94000015
:10010000833081F028F4813099F08230A9F008958D
:100110008730A9F08830C9F08430B1F48091800034
:100120008F7D03C0809180008F7780938000089539
:1001300084B58F7784BD089584B58F7DFBCF809182
:10014000B0008F778093B00008958091B0008F7DCC
:10015000F9CF1F93CF93DF93282F30E0F901E255B9
:10016000FF4F8491F901E656FF4FD491F901EA5708
:10017000FF4FC491CC23A9F0162F81110E9480005B
:10018000EC2FF0E0EE0FFF1FE458FF4FA591B49164
:100190008FB7F894EC91111108C0D095DE23DC9351
:1001A0008FBFDF91CF911F910895DE2BF8CFCF93B2
:1001B000DF9390E0FC01E656FF4F24918A579F4F52
:1001C000FC0184918823D1F090E0880F991FFC01F5
:1001D000EE58FF4FA591B491FC01E458FF4FC59133
:1001E000D49161110EC09FB7F8948C91E22FE095E5
:1001F0008E238C932881E223E8839FBFDF91CF91E8
:1002000008958FB7F894EC91E22BEC938FBFF6CF63
:100210003FB7F8948091070190910801A0910901DE
:10022000B0910A0126B5A89B05C02F3F19F0019691
:10023000A11DB11D3FBFBA2FA92F982F8827BC0140
:10024000CD01620F711D811D911D42E0660F771F68
:10025000881F991F4A95D1F708958F929F92AF9268
:10026000BF92CF92DF92EF92FF920E9408014B0162
:100270005C0188ECC82ED12CE12CF12C0E940801E5
:10028000681979098A099B09683E734081059105BF
:10029000A8F321E0C21AD108E108F10888EE880E1F
:1002A00083E0981EA11CB11CC114D104E104F10427
:1002B00029F7FF90EF90DF90CF90BF90AF909F9085
:1002C0008F900895CF93DF93EC0160E084E00E946B
:1002D000A90060E085E00E94A90060E086E00E943D
:1002E000A90060E087E00E94A90060E088E00E9429
:1002F000A90060E089E00E94A90060E08AE00E9415
:10030000A900C130D10551F461E085E00E94A90047
:1003100061E086E0DF91CF910C94A900C230D10555
:1003200099F461E084E00E94A90061E085E00E9408
:10033000A90061E087E00E94A90061E088E00E94D6
:10034000A90061E08AE0E6CFC330D10579F461E02D
:1003500084E00E94A90061E085E00E94A90061E0BC
:1003600086E00E94A90061E087E0E9CFC430D105B2
:1003700059F461E085E00E94A90061E086E00E94F6
:10038000A90061E089E0DBCF61E084E0C530D10500
:1003900059F161E084E0C630D10589F0C730D1055C
:1003A00029F461E084E00E94A900AECFC830D105F5
:1003B00099F461E084E00E94A90061E085E00E9478
:1003C000A90061E086E00E94A90061E087E00E9448
:1003D000A90061E088E0D3CF299779F461E084E057
:1003E0000E94A90061E085E00E94A90061E086E02A
:1003F0000E94A90061E087E0C2CFDF91CF9108950C
:100400001F920F920FB60F9211242F933F938F9349
:100410009F93AF93BF938091030190910401A091AA
:100420000501B09106013091020123E0230F2D3721
:1004300058F50196A11DB11D20930201809303017F
:1004400090930401A0930501B093060180910701E8
:1004500090910801A0910901B0910A010196A11D96
:10046000B11D8093070190930801A0930901B093F7
:100470000A01BF91AF919F918F913F912F910F9062
:100480000FBE0F901F90189526E8230F0296A11D0E
:10049000B11DD2CF789484B5826084BD84B581606B
:1004A00084BD85B5826085BD85B5816085BD80913F
:1004B0006E00816080936E001092810080918100B7
:1004C00082608093810080918100816080938100AF
:1004D000809180008160809380008091B100846071
:1004E0008093B1008091B00081608093B0008091D2
:1004F0007A00846080937A0080917A008260809391
:100500007A0080917A00816080937A0080917A00ED
:10051000806880937A001092C10060E082E00E94BF
:10052000D70061E083E00E94D70061E084E00E9490
:10053000D70061E085E00E94D70061E086E00E947C
:10054000D70061E087E00E94D70061E088E00E9468
:10055000D70061E089E00E94D70061E08AE00E9454
:10056000D70080910001909101010E946201C0EBCF
:10057000D0E00CE910E098E8E92E90E0F92E20E4B4
:10058000822E30E0C32E30E0D32EAA24A394B12CC7
:10059000FE018491F8019490F7017490772011F195
:1005A00081110E948000E72DF0E0EE0FFF1FE85957
:1005B000FF4FA591B4918C919822A1F00E942D013A
:1005C000809100019091010101968A3091057CF59E
:1005D00090930101809300018091000190910101AD
:1005E0000E94620180927C0080917A0080648093F6
:1005F0007A0080917A0086FDFCCF809178009091FE
:100600007900209100013091010129303105A1F0DC
:1006100061E0843F91400CF060E083E00E94A9001B
:10062000C114D10409F4B4CF0E940000B1CFB0923C
:100630000101A0920001D0CF61E083E00E94A900F7
:100640000E942D0160E083E00E94A9000E942D011C
:06065000E7CFF894FFCF94
:020656000100A1
:00000001FF
